:100000000EC01DC03FC01BC01AC01AC018C029C0F6
:1000100016C015C014C013C012C011C010C01124E6
:100020001FBECFE5D2E0DEBFCDBF20E0A0E6B0E04E
:1000300001C01D92A136B207E1F739D0F8C0E0CF78
:100040001F920F920FB60F9211248F938091600030
:100050008160809360008F910F900FBE0F901F9072
:1000600018951F920F920FB60F9211248F938091C3
:1000700060008460809360008F910F900FBE0F909E
:100080001F9018951F920F920FB60F9211248F9305
:100090009F93809160009FEF90FB83F980936000B5
:1000A0009F918F910F900FBE0F901F90189580E831
:1000B00086BD86E086BD8AB583608ABD8AB58068C4
:1000C0008ABD8BE089BDB89A89B7826089BF83B742
:1000D000856083BF37981E9A87B1836087B9469A37
:1000E0003F9A88B18C7F88B9A39A4798439A80E158
:1000F00088BBAC9A8BB780628BBF85B7877E85BF84
:1001000078948091600084608093600095E083E043
:1001100048EF35E0823009F455C0833009F468C0F7
:10012000813009F441C08091600083FF05C0809157
:100130006000877F80936000B4991BC085B7877E7D
:10014000806185BF89B78D7F89BF43BF8AB58F77AF
:100150008ABD12BE80B5846080BD4398B89AC098AD
:1001600083E025B7206225BF889525B72F7D25BF61
:10017000D1CF8091600082FF2BC0809160008B7F87
:1001800080936000439880B58B7F80BD89B7826083
:1001900089BF459B06C08AB58F778ABDB89AC0983B
:1001A00033BF33BF81E0DDCF2091600020FFD9CF86
:1001B000209160002E7F20936000915091F695E091
:1001C00082E0CFCF459B06C08AB580688ABD439A3E
:1001D00080E0C7CF89B78D7F89BF43BF8AB58F774E
:1001E0008ABD12BE80B5846080BDB89AC098EFCF3A
:1001F0002091600023FFB5CF20916000277F2093DE
:100200006000B49BAECF80916000846080936000FA
:1002100085B7877E85BF80B58B7F80BD89B78260BB
:1002200089BF8AB58F778ABD12BE33BFD0CFF8940D
:02023000FFCFFE
:00000001FF
