:100000000EC01DC035C01BC01AC01AC018C024C005
:1000100016C015C014C013C012C011C010C01124E6
:100020001FBECFE5D2E0DEBFCDBF20E0A0E6B0E04E
:1000300001C01D92A136B207E1F72AD0EBC0E0CF94
:100040008F938FB78F938091600081608093600061
:100050008F918FBF8F9118958F938FB78F938091CA
:1000600060008460809360008F918FBF8F9118959E
:100070008F938FB78F939F93809160009FEF90FB3A
:1000800083F9809360009F918F918FBF8F91189516
:1000900080E886BD86E086BD8AB583608ABD8AB564
:1000A00080688ABD8BE089BDB89A89B7826089BFB4
:1000B00083B7856083BF37981E9A87B1836087B9FD
:1000C000469A3F9A88B18C7F88B9A39A4798439AF9
:1000D00080E188BBAC9A8BB780628BBF85B7877E87
:1000E00085BF78948091600084608093600095E083
:1000F00080E048EF35E0823009F456C0833009F4DF
:1001000069C0813009F442C08091600083FF05C05E
:1001100080916000877F80936000B49935C085B777
:10012000877E806185BF89B78D7F89BF43BF8AB5D0
:100130008F778ABD12BE80B5846080BD4398B89A1F
:10014000C09883E02091600022FF16C0809160007B
:100150008B7F80936000439880B58B7F80BD89B78B
:10016000826089BF459B06C08AB58F778ABDB89AE1
:10017000C09833BF33BF81E025B7206225BF889583
:1001800025B72F7D25BFB7CF80E0DCCF2091600061
:1001900020FFF2CF209160002E7F209360009150CD
:1001A00059F795E082E0E8CF459B06C08AB58068A4
:1001B0008ABD439A80E0E0CF89B78D7F89BF43BF76
:1001C0008AB58F778ABD12BE80B5846080BDB89A2B
:1001D000C098EFCF2091600023FFCECF2091600028
:1001E000277F20936000B49BC7CF85B7877E85BFEC
:1001F00080B58B7F80BD89B7826089BF8AB58F77D4
:100200008ABD12BE33BF439A8091600084608093A0
:080210006000D0CFF894FFCF8D
:00000001FF
